:020000020000FC
:0200000004C03A
:020004002EC00C
:1000080035C00FEF0DBF08E00EBF03E00AB900E0EE
:100018000BB90AB90DE00093810003E00DBB0AE0BB
:10002800009369000AE00093880000E000938900CB
:1000380040E353E011E17894B19BFECFB19A14FDEF
:1000480020E010FD20E015FD21E011FD22E016FD65
:10005800142712FD15272BB9EFCF10FF189514FDA3
:1000680011E215FD11E616FD11E1189514FF18951A
:0E00780010FD12E111FD1CE112FD11E11895C1
:00000001FF
