:100000000C9434000C9446000C9446000C9446006A
:100010000C9446000C9446000C9446000C94460048
:100020000C9446000C9446000C9446000C94460038
:100030000C9446000C9446000C9456000C94460018
:100040000C9446000C9446000C9446000C94460018
:100050000C9446000C9446000C9446000C94460008
:100060000C9446000C94460011241FBECFEFD8E03C
:10007000DEBFCDBF21E0A0E0B1E001C01D92A43001
:10008000B207E1F70E94CD000C94E1000C9400004F
:100090008FEF8AB91BB892E094BD85B5836085BDAA
:1000A00089EF87BD90936E00789408951F920F9208
:1000B0000FB60F9211248F939F93AF93BF938091AC
:1000C000000190910101A0910201B09103010196FC
:1000D000A11DB11D8093000190930101A093020125
:1000E000B0930301BF91AF919F918F910F900FBE7D
:1000F0000F901F9018950F931F938B019C014091B7
:100100000001509101016091020170910301400FC3
:10011000511F621F731F8091000190910101A091F6
:100120000201B0910301481759076A077B07A8F439
:10013000109200011092010110920201109203012D
:100140008091000190910101A0910201B091030101
:1001500080179107A207B30798F38091000190914F
:100160000101A0910201B091030184179507A60730
:10017000B70798F31F910F910895AB01BC018091CF
:10018000000190910101A0910201B0910301481773
:1001900059076A077B0798F708950E94480068E8A6
:1001A00073E180E090E00E94BD00589AC1E060EDEC
:1001B00077E080E090E00E947B008BB18C278BB9C8
:0601C000F6CFF894FFCF1A
:00000001FF
