S01200005072616B74696B756D322E7372656328
S11300000C9434000C9451000C9451000C94510045
S11300100C9451000C9451000C9451000C94510018
S11300200C9451000C9451000C9451000C94510008
S11300300C9451000C9451000C9451000C945100F8
S11300400C9451000C9451000C9451000C945100E8
S11300500C9451000C9451000C9451000C945100D8
S11300600C9451000C94510011241FBECFEFD8E022
S1130070DEBFCDBF11E0A0E0B1E0EEEAF1E002C0E6
S113008005900D92A430B107D9F721E0A4E0B1E0C6
S113009001C01D92A630B207E1F70E9488000C94BB
S11300A0D5000C94000017B88FEF88B98AB91BB833
S11300B00895309915C0489B07C09091000181E0D4
S11300C08927809300010CC0499B0AC081E090E01D
S11300D09093020180930101109205011092040192
S11300E0319915C0499B07C09091000181E089278F
S11300F0809300010895489B0AC010920201109257
S1130100010181E090E0909305018093040108953A
S11301100E9453000F2EF1E0EF2EF1E0FF2EF02DA0
S1130120C1E0D0E004E011E00E9459008091000198
S11301308823C9F09BB19E01F701008002C0220F01
S1130140331F0A94E2F7822F809589238BB92BB150
S1130150CE01F801008002C0880F991F0A94E2F7CB
S113016082278BB918C09BB19E01F701008002C0A1
S1130170220F331F0A94E2F7822F809589238BB9CB
S11301802BB1CE01F801008002C0880F991F0A9498
S1130190E2F7822B8BB9FFEF23EC89E0F15020408A
S11101A08040E1F700C00000BFCFF894FFCF0D
S10701AE0101000047
S9030000FC
